{
	"proposal.sol": {
		"proposalVote": {
			"abi": [
				{
					"inputs": [],
					"stateMutability": "nonpayable",
					"type": "constructor"
				},
				{
					"inputs": [],
					"name": "proposalResult",
					"outputs": [
						{
							"internalType": "uint256",
							"name": "support",
							"type": "uint256"
						},
						{
							"internalType": "uint256",
							"name": "againest",
							"type": "uint256"
						},
						{
							"internalType": "bool",
							"name": "pass",
							"type": "bool"
						}
					],
					"stateMutability": "view",
					"type": "function"
				},
				{
					"inputs": [
						{
							"internalType": "address",
							"name": "sender",
							"type": "address"
						}
					],
					"name": "restVoteWeight",
					"outputs": [
						{
							"internalType": "uint256",
							"name": "weight",
							"type": "uint256"
						}
					],
					"stateMutability": "view",
					"type": "function"
				},
				{
					"inputs": [
						{
							"internalType": "uint256",
							"name": "voteNumber",
							"type": "uint256"
						},
						{
							"internalType": "bool",
							"name": "support",
							"type": "bool"
						},
						{
							"internalType": "uint256",
							"name": "totalToken",
							"type": "uint256"
						},
						{
							"internalType": "address",
							"name": "sender",
							"type": "address"
						}
					],
					"name": "vote",
					"outputs": [],
					"stateMutability": "nonpayable",
					"type": "function"
				},
				{
					"inputs": [
						{
							"internalType": "address",
							"name": "",
							"type": "address"
						}
					],
					"name": "voters",
					"outputs": [
						{
							"internalType": "bool",
							"name": "exists",
							"type": "bool"
						},
						{
							"internalType": "uint256",
							"name": "voteweight",
							"type": "uint256"
						}
					],
					"stateMutability": "view",
					"type": "function"
				}
			],
			"devdoc": {
				"kind": "dev",
				"methods": {},
				"version": 1
			},
			"evm": {
				"assembly": "    /* \"proposal.sol\":70:1711  contract proposalVote{... */\n  mstore(0x40, 0x80)\n    /* \"proposal.sol\":347:405  constructor(){... */\n  callvalue\n  dup1\n  iszero\n  tag_1\n  jumpi\n  0x00\n  dup1\n  revert\ntag_1:\n  pop\n    /* \"proposal.sol\":376:398  Voteprocess(false,0,0) */\n  mload(0x40)\n  dup1\n  0x60\n  add\n  0x40\n  mstore\n  dup1\n    /* \"proposal.sol\":388:393  false */\n  0x00\n    /* \"proposal.sol\":376:398  Voteprocess(false,0,0) */\n  iszero\n  iszero\n  dup2\n  mstore\n  0x20\n  add\n    /* \"proposal.sol\":394:395  0 */\n  0x00\n    /* \"proposal.sol\":376:398  Voteprocess(false,0,0) */\n  dup2\n  mstore\n  0x20\n  add\n    /* \"proposal.sol\":396:397  0 */\n  0x00\n    /* \"proposal.sol\":376:398  Voteprocess(false,0,0) */\n  dup2\n  mstore\n  pop\n    /* \"proposal.sol\":370:373  pro */\n  0x01\n    /* \"proposal.sol\":370:398  pro = Voteprocess(false,0,0) */\n  0x00\n  dup3\n  add\n  mload\n  dup2\n  0x00\n  add\n  exp(0x0100, 0x00)\n  dup2\n  sload\n  dup2\n  0xff\n  mul\n  not\n  and\n  swap1\n  dup4\n  iszero\n  iszero\n  mul\n  or\n  swap1\n  sstore\n  pop\n  0x20\n  dup3\n  add\n  mload\n  dup2\n  0x01\n  add\n  sstore\n  0x40\n  dup3\n  add\n  mload\n  dup2\n  0x02\n  add\n  sstore\n  swap1\n  pop\n  pop\n    /* \"proposal.sol\":70:1711  contract proposalVote{... */\n  dataSize(sub_0)\n  dup1\n  dataOffset(sub_0)\n  0x00\n  codecopy\n  0x00\n  return\nstop\n\nsub_0: assembly {\n        /* \"proposal.sol\":70:1711  contract proposalVote{... */\n      mstore(0x40, 0x80)\n      callvalue\n      dup1\n      iszero\n      tag_1\n      jumpi\n      0x00\n      dup1\n      revert\n    tag_1:\n      pop\n      jumpi(tag_2, lt(calldatasize, 0x04))\n      shr(0xe0, calldataload(0x00))\n      dup1\n      0x4433fe1c\n      eq\n      tag_3\n      jumpi\n      dup1\n      0x66dceec8\n      eq\n      tag_4\n      jumpi\n      dup1\n      0xa3ec138d\n      eq\n      tag_5\n      jumpi\n      dup1\n      0xeb47099d\n      eq\n      tag_6\n      jumpi\n    tag_2:\n      0x00\n      dup1\n      revert\n        /* \"proposal.sol\":1297:1561  function proposalResult() public view... */\n    tag_3:\n      tag_7\n      tag_8\n      jump\t// in\n    tag_7:\n      mload(0x40)\n      tag_9\n      swap4\n      swap3\n      swap2\n      swap1\n      tag_10\n      jump\t// in\n    tag_9:\n      mload(0x40)\n      dup1\n      swap2\n      sub\n      swap1\n      return\n        /* \"proposal.sol\":1567:1708  function restVoteWeight(address sender) public view... */\n    tag_4:\n      tag_11\n      0x04\n      dup1\n      calldatasize\n      sub\n      dup2\n      add\n      swap1\n      tag_12\n      swap2\n      swap1\n      tag_13\n      jump\t// in\n    tag_12:\n      tag_14\n      jump\t// in\n    tag_11:\n      mload(0x40)\n      tag_15\n      swap2\n      swap1\n      tag_16\n      jump\t// in\n    tag_15:\n      mload(0x40)\n      dup1\n      swap2\n      sub\n      swap1\n      return\n        /* \"proposal.sol\":272:311  mapping(address => Voter) public voters */\n    tag_5:\n      tag_17\n      0x04\n      dup1\n      calldatasize\n      sub\n      dup2\n      add\n      swap1\n      tag_18\n      swap2\n      swap1\n      tag_13\n      jump\t// in\n    tag_18:\n      tag_19\n      jump\t// in\n    tag_17:\n      mload(0x40)\n      tag_20\n      swap3\n      swap2\n      swap1\n      tag_21\n      jump\t// in\n    tag_20:\n      mload(0x40)\n      dup1\n      swap2\n      sub\n      swap1\n      return\n        /* \"proposal.sol\":411:1291  function vote(uint256 voteNumber, bool support, uint256 totalToken, address sender) public{... */\n    tag_6:\n      tag_22\n      0x04\n      dup1\n      calldatasize\n      sub\n      dup2\n      add\n      swap1\n      tag_23\n      swap2\n      swap1\n      tag_24\n      jump\t// in\n    tag_23:\n      tag_25\n      jump\t// in\n    tag_22:\n      stop\n        /* \"proposal.sol\":1297:1561  function proposalResult() public view... */\n    tag_8:\n        /* \"proposal.sol\":1356:1368  uint support */\n      0x00\n        /* \"proposal.sol\":1370:1383  uint againest */\n      dup1\n        /* \"proposal.sol\":1385:1394  bool pass */\n      0x00\n        /* \"proposal.sol\":1420:1423  pro */\n      0x01\n        /* \"proposal.sol\":1420:1432  pro.yesVotes */\n      dup1\n      add\n      sload\n        /* \"proposal.sol\":1410:1432  support = pro.yesVotes */\n      swap3\n      pop\n        /* \"proposal.sol\":1453:1456  pro */\n      0x01\n        /* \"proposal.sol\":1453:1464  pro.noVotes */\n      0x02\n      add\n      sload\n        /* \"proposal.sol\":1442:1464  againest = pro.noVotes */\n      swap2\n      pop\n        /* \"proposal.sol\":1481:1485  true */\n      0x01\n        /* \"proposal.sol\":1474:1485  pass = true */\n      swap1\n      pop\n        /* \"proposal.sol\":1509:1517  againest */\n      dup2\n        /* \"proposal.sol\":1499:1506  support */\n      dup4\n        /* \"proposal.sol\":1499:1517  support < againest */\n      lt\n        /* \"proposal.sol\":1495:1555  if (support < againest){... */\n      iszero\n      tag_27\n      jumpi\n        /* \"proposal.sol\":1539:1544  false */\n      0x00\n        /* \"proposal.sol\":1532:1544  pass = false */\n      swap1\n      pop\n        /* \"proposal.sol\":1495:1555  if (support < againest){... */\n    tag_27:\n        /* \"proposal.sol\":1297:1561  function proposalResult() public view... */\n      swap1\n      swap2\n      swap3\n      jump\t// out\n        /* \"proposal.sol\":1567:1708  function restVoteWeight(address sender) public view... */\n    tag_14:\n        /* \"proposal.sol\":1640:1651  uint weight */\n      0x00\n        /* \"proposal.sol\":1676:1682  voters */\n      dup1\n        /* \"proposal.sol\":1676:1690  voters[sender] */\n      0x00\n        /* \"proposal.sol\":1683:1689  sender */\n      dup4\n        /* \"proposal.sol\":1676:1690  voters[sender] */\n      0xffffffffffffffffffffffffffffffffffffffff\n      and\n      0xffffffffffffffffffffffffffffffffffffffff\n      and\n      dup2\n      mstore\n      0x20\n      add\n      swap1\n      dup2\n      mstore\n      0x20\n      add\n      0x00\n      keccak256\n        /* \"proposal.sol\":1676:1701  voters[sender].voteweight */\n      0x01\n      add\n      sload\n        /* \"proposal.sol\":1667:1701  weight = voters[sender].voteweight */\n      swap1\n      pop\n        /* \"proposal.sol\":1567:1708  function restVoteWeight(address sender) public view... */\n      swap2\n      swap1\n      pop\n      jump\t// out\n        /* \"proposal.sol\":272:311  mapping(address => Voter) public voters */\n    tag_19:\n      mstore(0x20, 0x00)\n      dup1\n      0x00\n      mstore\n      keccak256(0x00, 0x40)\n      0x00\n      swap2\n      pop\n      swap1\n      pop\n      dup1\n      0x00\n      add\n      0x00\n      swap1\n      sload\n      swap1\n      0x0100\n      exp\n      swap1\n      div\n      0xff\n      and\n      swap1\n      dup1\n      0x01\n      add\n      sload\n      swap1\n      pop\n      dup3\n      jump\t// out\n        /* \"proposal.sol\":411:1291  function vote(uint256 voteNumber, bool support, uint256 totalToken, address sender) public{... */\n    tag_25:\n        /* \"proposal.sol\":516:522  voters */\n      0x00\n        /* \"proposal.sol\":516:530  voters[sender] */\n      dup1\n        /* \"proposal.sol\":523:529  sender */\n      dup3\n        /* \"proposal.sol\":516:530  voters[sender] */\n      0xffffffffffffffffffffffffffffffffffffffff\n      and\n      0xffffffffffffffffffffffffffffffffffffffff\n      and\n      dup2\n      mstore\n      0x20\n      add\n      swap1\n      dup2\n      mstore\n      0x20\n      add\n      0x00\n      keccak256\n        /* \"proposal.sol\":516:537  voters[sender].exists */\n      0x00\n      add\n      0x00\n      swap1\n      sload\n      swap1\n      0x0100\n      exp\n      swap1\n      div\n      0xff\n      and\n        /* \"proposal.sol\":511:603  if (!voters[sender].exists){... */\n      tag_30\n      jumpi\n        /* \"proposal.sol\":569:592  Voter(true, totalToken) */\n      mload(0x40)\n      dup1\n      0x40\n      add\n      0x40\n      mstore\n      dup1\n        /* \"proposal.sol\":575:579  true */\n      0x01\n        /* \"proposal.sol\":569:592  Voter(true, totalToken) */\n      iszero\n      iszero\n      dup2\n      mstore\n      0x20\n      add\n        /* \"proposal.sol\":581:591  totalToken */\n      dup4\n        /* \"proposal.sol\":569:592  Voter(true, totalToken) */\n      dup2\n      mstore\n      pop\n        /* \"proposal.sol\":552:558  voters */\n      0x00\n        /* \"proposal.sol\":552:566  voters[sender] */\n      dup1\n        /* \"proposal.sol\":559:565  sender */\n      dup4\n        /* \"proposal.sol\":552:566  voters[sender] */\n      0xffffffffffffffffffffffffffffffffffffffff\n      and\n      0xffffffffffffffffffffffffffffffffffffffff\n      and\n      dup2\n      mstore\n      0x20\n      add\n      swap1\n      dup2\n      mstore\n      0x20\n      add\n      0x00\n      keccak256\n        /* \"proposal.sol\":552:592  voters[sender] = Voter(true, totalToken) */\n      0x00\n      dup3\n      add\n      mload\n      dup2\n      0x00\n      add\n      exp(0x0100, 0x00)\n      dup2\n      sload\n      dup2\n      0xff\n      mul\n      not\n      and\n      swap1\n      dup4\n      iszero\n      iszero\n      mul\n      or\n      swap1\n      sstore\n      pop\n      0x20\n      dup3\n      add\n      mload\n      dup2\n      0x01\n      add\n      sstore\n      swap1\n      pop\n      pop\n        /* \"proposal.sol\":511:603  if (!voters[sender].exists){... */\n    tag_30:\n        /* \"proposal.sol\":635:641  voters */\n      0x00\n        /* \"proposal.sol\":635:649  voters[sender] */\n      dup1\n        /* \"proposal.sol\":642:648  sender */\n      dup3\n        /* \"proposal.sol\":635:649  voters[sender] */\n      0xffffffffffffffffffffffffffffffffffffffff\n      and\n      0xffffffffffffffffffffffffffffffffffffffff\n      and\n      dup2\n      mstore\n      0x20\n      add\n      swap1\n      dup2\n      mstore\n      0x20\n      add\n      0x00\n      keccak256\n        /* \"proposal.sol\":635:660  voters[sender].voteweight */\n      0x01\n      add\n      sload\n        /* \"proposal.sol\":621:631  voteNumber */\n      dup5\n        /* \"proposal.sol\":621:660  voteNumber <= voters[sender].voteweight */\n      gt\n      iszero\n        /* \"proposal.sol\":613:689  require(voteNumber <= voters[sender].voteweight, \"Your token is not enough\") */\n      tag_31\n      jumpi\n      mload(0x40)\n      0x08c379a000000000000000000000000000000000000000000000000000000000\n      dup2\n      mstore\n      0x04\n      add\n      tag_32\n      swap1\n      tag_33\n      jump\t// in\n    tag_32:\n      mload(0x40)\n      dup1\n      swap2\n      sub\n      swap1\n      revert\n    tag_31:\n        /* \"proposal.sol\":963:970  support */\n      dup3\n        /* \"proposal.sol\":959:1185  if (support) {... */\n      iszero\n      tag_34\n      jumpi\n        /* \"proposal.sol\":1002:1012  voteNumber */\n      dup4\n        /* \"proposal.sol\":986:989  pro */\n      0x01\n        /* \"proposal.sol\":986:998  pro.yesVotes */\n      dup1\n      add\n      0x00\n        /* \"proposal.sol\":986:1012  pro.yesVotes += voteNumber */\n      dup3\n      dup3\n      sload\n      tag_35\n      swap2\n      swap1\n      tag_36\n      jump\t// in\n    tag_35:\n      swap3\n      pop\n      pop\n      dup2\n      swap1\n      sstore\n      pop\n        /* \"proposal.sol\":1055:1065  voteNumber */\n      dup4\n        /* \"proposal.sol\":1026:1032  voters */\n      0x00\n        /* \"proposal.sol\":1026:1040  voters[sender] */\n      dup1\n        /* \"proposal.sol\":1033:1039  sender */\n      dup4\n        /* \"proposal.sol\":1026:1040  voters[sender] */\n      0xffffffffffffffffffffffffffffffffffffffff\n      and\n      0xffffffffffffffffffffffffffffffffffffffff\n      and\n      dup2\n      mstore\n      0x20\n      add\n      swap1\n      dup2\n      mstore\n      0x20\n      add\n      0x00\n      keccak256\n        /* \"proposal.sol\":1026:1051  voters[sender].voteweight */\n      0x01\n      add\n      0x00\n        /* \"proposal.sol\":1026:1065  voters[sender].voteweight -= voteNumber */\n      dup3\n      dup3\n      sload\n      tag_37\n      swap2\n      swap1\n      tag_38\n      jump\t// in\n    tag_37:\n      swap3\n      pop\n      pop\n      dup2\n      swap1\n      sstore\n      pop\n        /* \"proposal.sol\":959:1185  if (support) {... */\n      jump(tag_39)\n    tag_34:\n        /* \"proposal.sol\":1111:1121  voteNumber */\n      dup4\n        /* \"proposal.sol\":1096:1099  pro */\n      0x01\n        /* \"proposal.sol\":1096:1107  pro.noVotes */\n      0x02\n      add\n      0x00\n        /* \"proposal.sol\":1096:1121  pro.noVotes += voteNumber */\n      dup3\n      dup3\n      sload\n      tag_40\n      swap2\n      swap1\n      tag_36\n      jump\t// in\n    tag_40:\n      swap3\n      pop\n      pop\n      dup2\n      swap1\n      sstore\n      pop\n        /* \"proposal.sol\":1164:1174  voteNumber */\n      dup4\n        /* \"proposal.sol\":1135:1141  voters */\n      0x00\n        /* \"proposal.sol\":1135:1149  voters[sender] */\n      dup1\n        /* \"proposal.sol\":1142:1148  sender */\n      dup4\n        /* \"proposal.sol\":1135:1149  voters[sender] */\n      0xffffffffffffffffffffffffffffffffffffffff\n      and\n      0xffffffffffffffffffffffffffffffffffffffff\n      and\n      dup2\n      mstore\n      0x20\n      add\n      swap1\n      dup2\n      mstore\n      0x20\n      add\n      0x00\n      keccak256\n        /* \"proposal.sol\":1135:1160  voters[sender].voteweight */\n      0x01\n      add\n      0x00\n        /* \"proposal.sol\":1135:1174  voters[sender].voteweight -= voteNumber */\n      dup3\n      dup3\n      sload\n      tag_41\n      swap2\n      swap1\n      tag_38\n      jump\t// in\n    tag_41:\n      swap3\n      pop\n      pop\n      dup2\n      swap1\n      sstore\n      pop\n        /* \"proposal.sol\":959:1185  if (support) {... */\n    tag_39:\n        /* \"proposal.sol\":411:1291  function vote(uint256 voteNumber, bool support, uint256 totalToken, address sender) public{... */\n      pop\n      pop\n      pop\n      pop\n      jump\t// out\n        /* \"#utility.yul\":7:84   */\n    tag_42:\n        /* \"#utility.yul\":44:51   */\n      0x00\n        /* \"#utility.yul\":73:78   */\n      dup2\n        /* \"#utility.yul\":62:78   */\n      swap1\n      pop\n        /* \"#utility.yul\":7:84   */\n      swap2\n      swap1\n      pop\n      jump\t// out\n        /* \"#utility.yul\":90:208   */\n    tag_43:\n        /* \"#utility.yul\":177:201   */\n      tag_64\n        /* \"#utility.yul\":195:200   */\n      dup2\n        /* \"#utility.yul\":177:201   */\n      tag_42\n      jump\t// in\n    tag_64:\n        /* \"#utility.yul\":172:175   */\n      dup3\n        /* \"#utility.yul\":165:202   */\n      mstore\n        /* \"#utility.yul\":90:208   */\n      pop\n      pop\n      jump\t// out\n        /* \"#utility.yul\":214:304   */\n    tag_44:\n        /* \"#utility.yul\":248:255   */\n      0x00\n        /* \"#utility.yul\":291:296   */\n      dup2\n        /* \"#utility.yul\":284:297   */\n      iszero\n        /* \"#utility.yul\":277:298   */\n      iszero\n        /* \"#utility.yul\":266:298   */\n      swap1\n      pop\n        /* \"#utility.yul\":214:304   */\n      swap2\n      swap1\n      pop\n      jump\t// out\n        /* \"#utility.yul\":310:419   */\n    tag_45:\n        /* \"#utility.yul\":391:412   */\n      tag_67\n        /* \"#utility.yul\":406:411   */\n      dup2\n        /* \"#utility.yul\":391:412   */\n      tag_44\n      jump\t// in\n    tag_67:\n        /* \"#utility.yul\":386:389   */\n      dup3\n        /* \"#utility.yul\":379:413   */\n      mstore\n        /* \"#utility.yul\":310:419   */\n      pop\n      pop\n      jump\t// out\n        /* \"#utility.yul\":425:855   */\n    tag_10:\n        /* \"#utility.yul\":568:572   */\n      0x00\n        /* \"#utility.yul\":606:608   */\n      0x60\n        /* \"#utility.yul\":595:604   */\n      dup3\n        /* \"#utility.yul\":591:609   */\n      add\n        /* \"#utility.yul\":583:609   */\n      swap1\n      pop\n        /* \"#utility.yul\":619:690   */\n      tag_69\n        /* \"#utility.yul\":687:688   */\n      0x00\n        /* \"#utility.yul\":676:685   */\n      dup4\n        /* \"#utility.yul\":672:689   */\n      add\n        /* \"#utility.yul\":663:669   */\n      dup7\n        /* \"#utility.yul\":619:690   */\n      tag_43\n      jump\t// in\n    tag_69:\n        /* \"#utility.yul\":700:772   */\n      tag_70\n        /* \"#utility.yul\":768:770   */\n      0x20\n        /* \"#utility.yul\":757:766   */\n      dup4\n        /* \"#utility.yul\":753:771   */\n      add\n        /* \"#utility.yul\":744:750   */\n      dup6\n        /* \"#utility.yul\":700:772   */\n      tag_43\n      jump\t// in\n    tag_70:\n        /* \"#utility.yul\":782:848   */\n      tag_71\n        /* \"#utility.yul\":844:846   */\n      0x40\n        /* \"#utility.yul\":833:842   */\n      dup4\n        /* \"#utility.yul\":829:847   */\n      add\n        /* \"#utility.yul\":820:826   */\n      dup5\n        /* \"#utility.yul\":782:848   */\n      tag_45\n      jump\t// in\n    tag_71:\n        /* \"#utility.yul\":425:855   */\n      swap5\n      swap4\n      pop\n      pop\n      pop\n      pop\n      jump\t// out\n        /* \"#utility.yul\":942:1059   */\n    tag_47:\n        /* \"#utility.yul\":1051:1052   */\n      0x00\n        /* \"#utility.yul\":1048:1049   */\n      dup1\n        /* \"#utility.yul\":1041:1053   */\n      revert\n        /* \"#utility.yul\":1188:1314   */\n    tag_49:\n        /* \"#utility.yul\":1225:1232   */\n      0x00\n        /* \"#utility.yul\":1265:1307   */\n      0xffffffffffffffffffffffffffffffffffffffff\n        /* \"#utility.yul\":1258:1263   */\n      dup3\n        /* \"#utility.yul\":1254:1308   */\n      and\n        /* \"#utility.yul\":1243:1308   */\n      swap1\n      pop\n        /* \"#utility.yul\":1188:1314   */\n      swap2\n      swap1\n      pop\n      jump\t// out\n        /* \"#utility.yul\":1320:1416   */\n    tag_50:\n        /* \"#utility.yul\":1357:1364   */\n      0x00\n        /* \"#utility.yul\":1386:1410   */\n      tag_77\n        /* \"#utility.yul\":1404:1409   */\n      dup3\n        /* \"#utility.yul\":1386:1410   */\n      tag_49\n      jump\t// in\n    tag_77:\n        /* \"#utility.yul\":1375:1410   */\n      swap1\n      pop\n        /* \"#utility.yul\":1320:1416   */\n      swap2\n      swap1\n      pop\n      jump\t// out\n        /* \"#utility.yul\":1422:1544   */\n    tag_51:\n        /* \"#utility.yul\":1495:1519   */\n      tag_79\n        /* \"#utility.yul\":1513:1518   */\n      dup2\n        /* \"#utility.yul\":1495:1519   */\n      tag_50\n      jump\t// in\n    tag_79:\n        /* \"#utility.yul\":1488:1493   */\n      dup2\n        /* \"#utility.yul\":1485:1520   */\n      eq\n        /* \"#utility.yul\":1475:1538   */\n      tag_80\n      jumpi\n        /* \"#utility.yul\":1534:1535   */\n      0x00\n        /* \"#utility.yul\":1531:1532   */\n      dup1\n        /* \"#utility.yul\":1524:1536   */\n      revert\n        /* \"#utility.yul\":1475:1538   */\n    tag_80:\n        /* \"#utility.yul\":1422:1544   */\n      pop\n      jump\t// out\n        /* \"#utility.yul\":1550:1689   */\n    tag_52:\n        /* \"#utility.yul\":1596:1601   */\n      0x00\n        /* \"#utility.yul\":1634:1640   */\n      dup2\n        /* \"#utility.yul\":1621:1641   */\n      calldataload\n        /* \"#utility.yul\":1612:1641   */\n      swap1\n      pop\n        /* \"#utility.yul\":1650:1683   */\n      tag_82\n        /* \"#utility.yul\":1677:1682   */\n      dup2\n        /* \"#utility.yul\":1650:1683   */\n      tag_51\n      jump\t// in\n    tag_82:\n        /* \"#utility.yul\":1550:1689   */\n      swap3\n      swap2\n      pop\n      pop\n      jump\t// out\n        /* \"#utility.yul\":1695:2024   */\n    tag_13:\n        /* \"#utility.yul\":1754:1760   */\n      0x00\n        /* \"#utility.yul\":1803:1805   */\n      0x20\n        /* \"#utility.yul\":1791:1800   */\n      dup3\n        /* \"#utility.yul\":1782:1789   */\n      dup5\n        /* \"#utility.yul\":1778:1801   */\n      sub\n        /* \"#utility.yul\":1774:1806   */\n      slt\n        /* \"#utility.yul\":1771:1890   */\n      iszero\n      tag_84\n      jumpi\n        /* \"#utility.yul\":1809:1888   */\n      tag_85\n      tag_47\n      jump\t// in\n    tag_85:\n        /* \"#utility.yul\":1771:1890   */\n    tag_84:\n        /* \"#utility.yul\":1929:1930   */\n      0x00\n        /* \"#utility.yul\":1954:2007   */\n      tag_86\n        /* \"#utility.yul\":1999:2006   */\n      dup5\n        /* \"#utility.yul\":1990:1996   */\n      dup3\n        /* \"#utility.yul\":1979:1988   */\n      dup6\n        /* \"#utility.yul\":1975:1997   */\n      add\n        /* \"#utility.yul\":1954:2007   */\n      tag_52\n      jump\t// in\n    tag_86:\n        /* \"#utility.yul\":1944:2007   */\n      swap2\n      pop\n        /* \"#utility.yul\":1900:2017   */\n      pop\n        /* \"#utility.yul\":1695:2024   */\n      swap3\n      swap2\n      pop\n      pop\n      jump\t// out\n        /* \"#utility.yul\":2030:2252   */\n    tag_16:\n        /* \"#utility.yul\":2123:2127   */\n      0x00\n        /* \"#utility.yul\":2161:2163   */\n      0x20\n        /* \"#utility.yul\":2150:2159   */\n      dup3\n        /* \"#utility.yul\":2146:2164   */\n      add\n        /* \"#utility.yul\":2138:2164   */\n      swap1\n      pop\n        /* \"#utility.yul\":2174:2245   */\n      tag_88\n        /* \"#utility.yul\":2242:2243   */\n      0x00\n        /* \"#utility.yul\":2231:2240   */\n      dup4\n        /* \"#utility.yul\":2227:2244   */\n      add\n        /* \"#utility.yul\":2218:2224   */\n      dup5\n        /* \"#utility.yul\":2174:2245   */\n      tag_43\n      jump\t// in\n    tag_88:\n        /* \"#utility.yul\":2030:2252   */\n      swap3\n      swap2\n      pop\n      pop\n      jump\t// out\n        /* \"#utility.yul\":2258:2578   */\n    tag_21:\n        /* \"#utility.yul\":2373:2377   */\n      0x00\n        /* \"#utility.yul\":2411:2413   */\n      0x40\n        /* \"#utility.yul\":2400:2409   */\n      dup3\n        /* \"#utility.yul\":2396:2414   */\n      add\n        /* \"#utility.yul\":2388:2414   */\n      swap1\n      pop\n        /* \"#utility.yul\":2424:2489   */\n      tag_90\n        /* \"#utility.yul\":2486:2487   */\n      0x00\n        /* \"#utility.yul\":2475:2484   */\n      dup4\n        /* \"#utility.yul\":2471:2488   */\n      add\n        /* \"#utility.yul\":2462:2468   */\n      dup6\n        /* \"#utility.yul\":2424:2489   */\n      tag_45\n      jump\t// in\n    tag_90:\n        /* \"#utility.yul\":2499:2571   */\n      tag_91\n        /* \"#utility.yul\":2567:2569   */\n      0x20\n        /* \"#utility.yul\":2556:2565   */\n      dup4\n        /* \"#utility.yul\":2552:2570   */\n      add\n        /* \"#utility.yul\":2543:2549   */\n      dup5\n        /* \"#utility.yul\":2499:2571   */\n      tag_43\n      jump\t// in\n    tag_91:\n        /* \"#utility.yul\":2258:2578   */\n      swap4\n      swap3\n      pop\n      pop\n      pop\n      jump\t// out\n        /* \"#utility.yul\":2584:2706   */\n    tag_53:\n        /* \"#utility.yul\":2657:2681   */\n      tag_93\n        /* \"#utility.yul\":2675:2680   */\n      dup2\n        /* \"#utility.yul\":2657:2681   */\n      tag_42\n      jump\t// in\n    tag_93:\n        /* \"#utility.yul\":2650:2655   */\n      dup2\n        /* \"#utility.yul\":2647:2682   */\n      eq\n        /* \"#utility.yul\":2637:2700   */\n      tag_94\n      jumpi\n        /* \"#utility.yul\":2696:2697   */\n      0x00\n        /* \"#utility.yul\":2693:2694   */\n      dup1\n        /* \"#utility.yul\":2686:2698   */\n      revert\n        /* \"#utility.yul\":2637:2700   */\n    tag_94:\n        /* \"#utility.yul\":2584:2706   */\n      pop\n      jump\t// out\n        /* \"#utility.yul\":2712:2851   */\n    tag_54:\n        /* \"#utility.yul\":2758:2763   */\n      0x00\n        /* \"#utility.yul\":2796:2802   */\n      dup2\n        /* \"#utility.yul\":2783:2803   */\n      calldataload\n        /* \"#utility.yul\":2774:2803   */\n      swap1\n      pop\n        /* \"#utility.yul\":2812:2845   */\n      tag_96\n        /* \"#utility.yul\":2839:2844   */\n      dup2\n        /* \"#utility.yul\":2812:2845   */\n      tag_53\n      jump\t// in\n    tag_96:\n        /* \"#utility.yul\":2712:2851   */\n      swap3\n      swap2\n      pop\n      pop\n      jump\t// out\n        /* \"#utility.yul\":2857:2973   */\n    tag_55:\n        /* \"#utility.yul\":2927:2948   */\n      tag_98\n        /* \"#utility.yul\":2942:2947   */\n      dup2\n        /* \"#utility.yul\":2927:2948   */\n      tag_44\n      jump\t// in\n    tag_98:\n        /* \"#utility.yul\":2920:2925   */\n      dup2\n        /* \"#utility.yul\":2917:2949   */\n      eq\n        /* \"#utility.yul\":2907:2967   */\n      tag_99\n      jumpi\n        /* \"#utility.yul\":2963:2964   */\n      0x00\n        /* \"#utility.yul\":2960:2961   */\n      dup1\n        /* \"#utility.yul\":2953:2965   */\n      revert\n        /* \"#utility.yul\":2907:2967   */\n    tag_99:\n        /* \"#utility.yul\":2857:2973   */\n      pop\n      jump\t// out\n        /* \"#utility.yul\":2979:3112   */\n    tag_56:\n        /* \"#utility.yul\":3022:3027   */\n      0x00\n        /* \"#utility.yul\":3060:3066   */\n      dup2\n        /* \"#utility.yul\":3047:3067   */\n      calldataload\n        /* \"#utility.yul\":3038:3067   */\n      swap1\n      pop\n        /* \"#utility.yul\":3076:3106   */\n      tag_101\n        /* \"#utility.yul\":3100:3105   */\n      dup2\n        /* \"#utility.yul\":3076:3106   */\n      tag_55\n      jump\t// in\n    tag_101:\n        /* \"#utility.yul\":2979:3112   */\n      swap3\n      swap2\n      pop\n      pop\n      jump\t// out\n        /* \"#utility.yul\":3118:3877   */\n    tag_24:\n        /* \"#utility.yul\":3201:3207   */\n      0x00\n        /* \"#utility.yul\":3209:3215   */\n      dup1\n        /* \"#utility.yul\":3217:3223   */\n      0x00\n        /* \"#utility.yul\":3225:3231   */\n      dup1\n        /* \"#utility.yul\":3274:3277   */\n      0x80\n        /* \"#utility.yul\":3262:3271   */\n      dup6\n        /* \"#utility.yul\":3253:3260   */\n      dup8\n        /* \"#utility.yul\":3249:3272   */\n      sub\n        /* \"#utility.yul\":3245:3278   */\n      slt\n        /* \"#utility.yul\":3242:3362   */\n      iszero\n      tag_103\n      jumpi\n        /* \"#utility.yul\":3281:3360   */\n      tag_104\n      tag_47\n      jump\t// in\n    tag_104:\n        /* \"#utility.yul\":3242:3362   */\n    tag_103:\n        /* \"#utility.yul\":3401:3402   */\n      0x00\n        /* \"#utility.yul\":3426:3479   */\n      tag_105\n        /* \"#utility.yul\":3471:3478   */\n      dup8\n        /* \"#utility.yul\":3462:3468   */\n      dup3\n        /* \"#utility.yul\":3451:3460   */\n      dup9\n        /* \"#utility.yul\":3447:3469   */\n      add\n        /* \"#utility.yul\":3426:3479   */\n      tag_54\n      jump\t// in\n    tag_105:\n        /* \"#utility.yul\":3416:3479   */\n      swap5\n      pop\n        /* \"#utility.yul\":3372:3489   */\n      pop\n        /* \"#utility.yul\":3528:3530   */\n      0x20\n        /* \"#utility.yul\":3554:3604   */\n      tag_106\n        /* \"#utility.yul\":3596:3603   */\n      dup8\n        /* \"#utility.yul\":3587:3593   */\n      dup3\n        /* \"#utility.yul\":3576:3585   */\n      dup9\n        /* \"#utility.yul\":3572:3594   */\n      add\n        /* \"#utility.yul\":3554:3604   */\n      tag_56\n      jump\t// in\n    tag_106:\n        /* \"#utility.yul\":3544:3604   */\n      swap4\n      pop\n        /* \"#utility.yul\":3499:3614   */\n      pop\n        /* \"#utility.yul\":3653:3655   */\n      0x40\n        /* \"#utility.yul\":3679:3732   */\n      tag_107\n        /* \"#utility.yul\":3724:3731   */\n      dup8\n        /* \"#utility.yul\":3715:3721   */\n      dup3\n        /* \"#utility.yul\":3704:3713   */\n      dup9\n        /* \"#utility.yul\":3700:3722   */\n      add\n        /* \"#utility.yul\":3679:3732   */\n      tag_54\n      jump\t// in\n    tag_107:\n        /* \"#utility.yul\":3669:3732   */\n      swap3\n      pop\n        /* \"#utility.yul\":3624:3742   */\n      pop\n        /* \"#utility.yul\":3781:3783   */\n      0x60\n        /* \"#utility.yul\":3807:3860   */\n      tag_108\n        /* \"#utility.yul\":3852:3859   */\n      dup8\n        /* \"#utility.yul\":3843:3849   */\n      dup3\n        /* \"#utility.yul\":3832:3841   */\n      dup9\n        /* \"#utility.yul\":3828:3850   */\n      add\n        /* \"#utility.yul\":3807:3860   */\n      tag_52\n      jump\t// in\n    tag_108:\n        /* \"#utility.yul\":3797:3860   */\n      swap2\n      pop\n        /* \"#utility.yul\":3752:3870   */\n      pop\n        /* \"#utility.yul\":3118:3877   */\n      swap3\n      swap6\n      swap2\n      swap5\n      pop\n      swap3\n      pop\n      jump\t// out\n        /* \"#utility.yul\":3883:4052   */\n    tag_57:\n        /* \"#utility.yul\":3967:3978   */\n      0x00\n        /* \"#utility.yul\":4001:4007   */\n      dup3\n        /* \"#utility.yul\":3996:3999   */\n      dup3\n        /* \"#utility.yul\":3989:4008   */\n      mstore\n        /* \"#utility.yul\":4041:4045   */\n      0x20\n        /* \"#utility.yul\":4036:4039   */\n      dup3\n        /* \"#utility.yul\":4032:4046   */\n      add\n        /* \"#utility.yul\":4017:4046   */\n      swap1\n      pop\n        /* \"#utility.yul\":3883:4052   */\n      swap3\n      swap2\n      pop\n      pop\n      jump\t// out\n        /* \"#utility.yul\":4058:4232   */\n    tag_58:\n        /* \"#utility.yul\":4198:4224   */\n      0x596f757220746f6b656e206973206e6f7420656e6f7567680000000000000000\n        /* \"#utility.yul\":4194:4195   */\n      0x00\n        /* \"#utility.yul\":4186:4192   */\n      dup3\n        /* \"#utility.yul\":4182:4196   */\n      add\n        /* \"#utility.yul\":4175:4225   */\n      mstore\n        /* \"#utility.yul\":4058:4232   */\n      pop\n      jump\t// out\n        /* \"#utility.yul\":4238:4604   */\n    tag_59:\n        /* \"#utility.yul\":4380:4383   */\n      0x00\n        /* \"#utility.yul\":4401:4468   */\n      tag_112\n        /* \"#utility.yul\":4465:4467   */\n      0x18\n        /* \"#utility.yul\":4460:4463   */\n      dup4\n        /* \"#utility.yul\":4401:4468   */\n      tag_57\n      jump\t// in\n    tag_112:\n        /* \"#utility.yul\":4394:4468   */\n      swap2\n      pop\n        /* \"#utility.yul\":4477:4570   */\n      tag_113\n        /* \"#utility.yul\":4566:4569   */\n      dup3\n        /* \"#utility.yul\":4477:4570   */\n      tag_58\n      jump\t// in\n    tag_113:\n        /* \"#utility.yul\":4595:4597   */\n      0x20\n        /* \"#utility.yul\":4590:4593   */\n      dup3\n        /* \"#utility.yul\":4586:4598   */\n      add\n        /* \"#utility.yul\":4579:4598   */\n      swap1\n      pop\n        /* \"#utility.yul\":4238:4604   */\n      swap2\n      swap1\n      pop\n      jump\t// out\n        /* \"#utility.yul\":4610:5029   */\n    tag_33:\n        /* \"#utility.yul\":4776:4780   */\n      0x00\n        /* \"#utility.yul\":4814:4816   */\n      0x20\n        /* \"#utility.yul\":4803:4812   */\n      dup3\n        /* \"#utility.yul\":4799:4817   */\n      add\n        /* \"#utility.yul\":4791:4817   */\n      swap1\n      pop\n        /* \"#utility.yul\":4863:4872   */\n      dup2\n        /* \"#utility.yul\":4857:4861   */\n      dup2\n        /* \"#utility.yul\":4853:4873   */\n      sub\n        /* \"#utility.yul\":4849:4850   */\n      0x00\n        /* \"#utility.yul\":4838:4847   */\n      dup4\n        /* \"#utility.yul\":4834:4851   */\n      add\n        /* \"#utility.yul\":4827:4874   */\n      mstore\n        /* \"#utility.yul\":4891:5022   */\n      tag_115\n        /* \"#utility.yul\":5017:5021   */\n      dup2\n        /* \"#utility.yul\":4891:5022   */\n      tag_59\n      jump\t// in\n    tag_115:\n        /* \"#utility.yul\":4883:5022   */\n      swap1\n      pop\n        /* \"#utility.yul\":4610:5029   */\n      swap2\n      swap1\n      pop\n      jump\t// out\n        /* \"#utility.yul\":5035:5215   */\n    tag_60:\n        /* \"#utility.yul\":5083:5160   */\n      0x4e487b7100000000000000000000000000000000000000000000000000000000\n        /* \"#utility.yul\":5080:5081   */\n      0x00\n        /* \"#utility.yul\":5073:5161   */\n      mstore\n        /* \"#utility.yul\":5180:5184   */\n      0x11\n        /* \"#utility.yul\":5177:5178   */\n      0x04\n        /* \"#utility.yul\":5170:5185   */\n      mstore\n        /* \"#utility.yul\":5204:5208   */\n      0x24\n        /* \"#utility.yul\":5201:5202   */\n      0x00\n        /* \"#utility.yul\":5194:5209   */\n      revert\n        /* \"#utility.yul\":5221:5412   */\n    tag_36:\n        /* \"#utility.yul\":5261:5264   */\n      0x00\n        /* \"#utility.yul\":5280:5300   */\n      tag_118\n        /* \"#utility.yul\":5298:5299   */\n      dup3\n        /* \"#utility.yul\":5280:5300   */\n      tag_42\n      jump\t// in\n    tag_118:\n        /* \"#utility.yul\":5275:5300   */\n      swap2\n      pop\n        /* \"#utility.yul\":5314:5334   */\n      tag_119\n        /* \"#utility.yul\":5332:5333   */\n      dup4\n        /* \"#utility.yul\":5314:5334   */\n      tag_42\n      jump\t// in\n    tag_119:\n        /* \"#utility.yul\":5309:5334   */\n      swap3\n      pop\n        /* \"#utility.yul\":5357:5358   */\n      dup3\n        /* \"#utility.yul\":5354:5355   */\n      dup3\n        /* \"#utility.yul\":5350:5359   */\n      add\n        /* \"#utility.yul\":5343:5359   */\n      swap1\n      pop\n        /* \"#utility.yul\":5378:5381   */\n      dup1\n        /* \"#utility.yul\":5375:5376   */\n      dup3\n        /* \"#utility.yul\":5372:5382   */\n      gt\n        /* \"#utility.yul\":5369:5405   */\n      iszero\n      tag_120\n      jumpi\n        /* \"#utility.yul\":5385:5403   */\n      tag_121\n      tag_60\n      jump\t// in\n    tag_121:\n        /* \"#utility.yul\":5369:5405   */\n    tag_120:\n        /* \"#utility.yul\":5221:5412   */\n      swap3\n      swap2\n      pop\n      pop\n      jump\t// out\n        /* \"#utility.yul\":5418:5612   */\n    tag_38:\n        /* \"#utility.yul\":5458:5462   */\n      0x00\n        /* \"#utility.yul\":5478:5498   */\n      tag_123\n        /* \"#utility.yul\":5496:5497   */\n      dup3\n        /* \"#utility.yul\":5478:5498   */\n      tag_42\n      jump\t// in\n    tag_123:\n        /* \"#utility.yul\":5473:5498   */\n      swap2\n      pop\n        /* \"#utility.yul\":5512:5532   */\n      tag_124\n        /* \"#utility.yul\":5530:5531   */\n      dup4\n        /* \"#utility.yul\":5512:5532   */\n      tag_42\n      jump\t// in\n    tag_124:\n        /* \"#utility.yul\":5507:5532   */\n      swap3\n      pop\n        /* \"#utility.yul\":5556:5557   */\n      dup3\n        /* \"#utility.yul\":5553:5554   */\n      dup3\n        /* \"#utility.yul\":5549:5558   */\n      sub\n        /* \"#utility.yul\":5541:5558   */\n      swap1\n      pop\n        /* \"#utility.yul\":5580:5581   */\n      dup2\n        /* \"#utility.yul\":5574:5578   */\n      dup2\n        /* \"#utility.yul\":5571:5582   */\n      gt\n        /* \"#utility.yul\":5568:5605   */\n      iszero\n      tag_125\n      jumpi\n        /* \"#utility.yul\":5585:5603   */\n      tag_126\n      tag_60\n      jump\t// in\n    tag_126:\n        /* \"#utility.yul\":5568:5605   */\n    tag_125:\n        /* \"#utility.yul\":5418:5612   */\n      swap3\n      swap2\n      pop\n      pop\n      jump\t// out\n\n    auxdata: 0xa264697066735822122056efdc0ba8b5ea348b7dc5b581d7982b65a65edb85a170b9068ecf1da64e9ef464736f6c63430008120033\n}\n",
				"bytecode": {
					"linkReferences": {},
					"object": "608060405234801561001057600080fd5b506040518060600160405280600015158152602001600081526020016000815250600160008201518160000160006101000a81548160ff0219169083151502179055506020820151816001015560408201518160020155905050610730806100796000396000f3fe608060405234801561001057600080fd5b506004361061004c5760003560e01c80634433fe1c1461005157806366dceec814610071578063a3ec138d146100a1578063eb47099d146100d2575b600080fd5b6100596100ee565b6040516100689392919061041c565b60405180910390f35b61008b600480360381019061008691906104b6565b610118565b60405161009891906104e3565b60405180910390f35b6100bb60048036038101906100b691906104b6565b610163565b6040516100c99291906104fe565b60405180910390f35b6100ec60048036038101906100e7919061057f565b610194565b005b6000806000600180015492506001600201549150600190508183101561011357600090505b909192565b60008060008373ffffffffffffffffffffffffffffffffffffffff1673ffffffffffffffffffffffffffffffffffffffff168152602001908152602001600020600101549050919050565b60006020528060005260406000206000915090508060000160009054906101000a900460ff16908060010154905082565b6000808273ffffffffffffffffffffffffffffffffffffffff1673ffffffffffffffffffffffffffffffffffffffff16815260200190815260200160002060000160009054906101000a900460ff1661026b576040518060400160405280600115158152602001838152506000808373ffffffffffffffffffffffffffffffffffffffff1673ffffffffffffffffffffffffffffffffffffffff16815260200190815260200160002060008201518160000160006101000a81548160ff021916908315150217905550602082015181600101559050505b6000808273ffffffffffffffffffffffffffffffffffffffff1673ffffffffffffffffffffffffffffffffffffffff168152602001908152602001600020600101548411156102ef576040517f08c379a00000000000000000000000000000000000000000000000000000000081526004016102e690610643565b60405180910390fd5b821561036d57836001800160008282546103099190610692565b92505081905550836000808373ffffffffffffffffffffffffffffffffffffffff1673ffffffffffffffffffffffffffffffffffffffff168152602001908152602001600020600101600082825461036191906106c6565b925050819055506103e2565b83600160020160008282546103829190610692565b92505081905550836000808373ffffffffffffffffffffffffffffffffffffffff1673ffffffffffffffffffffffffffffffffffffffff16815260200190815260200160002060010160008282546103da91906106c6565b925050819055505b50505050565b6000819050919050565b6103fb816103e8565b82525050565b60008115159050919050565b61041681610401565b82525050565b600060608201905061043160008301866103f2565b61043e60208301856103f2565b61044b604083018461040d565b949350505050565b600080fd5b600073ffffffffffffffffffffffffffffffffffffffff82169050919050565b600061048382610458565b9050919050565b61049381610478565b811461049e57600080fd5b50565b6000813590506104b08161048a565b92915050565b6000602082840312156104cc576104cb610453565b5b60006104da848285016104a1565b91505092915050565b60006020820190506104f860008301846103f2565b92915050565b6000604082019050610513600083018561040d565b61052060208301846103f2565b9392505050565b610530816103e8565b811461053b57600080fd5b50565b60008135905061054d81610527565b92915050565b61055c81610401565b811461056757600080fd5b50565b60008135905061057981610553565b92915050565b6000806000806080858703121561059957610598610453565b5b60006105a78782880161053e565b94505060206105b88782880161056a565b93505060406105c98782880161053e565b92505060606105da878288016104a1565b91505092959194509250565b600082825260208201905092915050565b7f596f757220746f6b656e206973206e6f7420656e6f7567680000000000000000600082015250565b600061062d6018836105e6565b9150610638826105f7565b602082019050919050565b6000602082019050818103600083015261065c81610620565b9050919050565b7f4e487b7100000000000000000000000000000000000000000000000000000000600052601160045260246000fd5b600061069d826103e8565b91506106a8836103e8565b92508282019050808211156106c0576106bf610663565b5b92915050565b60006106d1826103e8565b91506106dc836103e8565b92508282039050818111156106f4576106f3610663565b5b9291505056fea264697066735822122056efdc0ba8b5ea348b7dc5b581d7982b65a65edb85a170b9068ecf1da64e9ef464736f6c63430008120033",
					"opcodes": "PUSH1 0x80 PUSH1 0x40 MSTORE CALLVALUE DUP1 ISZERO PUSH2 0x10 JUMPI PUSH1 0x0 DUP1 REVERT JUMPDEST POP PUSH1 0x40 MLOAD DUP1 PUSH1 0x60 ADD PUSH1 0x40 MSTORE DUP1 PUSH1 0x0 ISZERO ISZERO DUP2 MSTORE PUSH1 0x20 ADD PUSH1 0x0 DUP2 MSTORE PUSH1 0x20 ADD PUSH1 0x0 DUP2 MSTORE POP PUSH1 0x1 PUSH1 0x0 DUP3 ADD MLOAD DUP2 PUSH1 0x0 ADD PUSH1 0x0 PUSH2 0x100 EXP DUP2 SLOAD DUP2 PUSH1 0xFF MUL NOT AND SWAP1 DUP4 ISZERO ISZERO MUL OR SWAP1 SSTORE POP PUSH1 0x20 DUP3 ADD MLOAD DUP2 PUSH1 0x1 ADD SSTORE PUSH1 0x40 DUP3 ADD MLOAD DUP2 PUSH1 0x2 ADD SSTORE SWAP1 POP POP PUSH2 0x730 DUP1 PUSH2 0x79 PUSH1 0x0 CODECOPY PUSH1 0x0 RETURN INVALID PUSH1 0x80 PUSH1 0x40 MSTORE CALLVALUE DUP1 ISZERO PUSH2 0x10 JUMPI PUSH1 0x0 DUP1 REVERT JUMPDEST POP PUSH1 0x4 CALLDATASIZE LT PUSH2 0x4C JUMPI PUSH1 0x0 CALLDATALOAD PUSH1 0xE0 SHR DUP1 PUSH4 0x4433FE1C EQ PUSH2 0x51 JUMPI DUP1 PUSH4 0x66DCEEC8 EQ PUSH2 0x71 JUMPI DUP1 PUSH4 0xA3EC138D EQ PUSH2 0xA1 JUMPI DUP1 PUSH4 0xEB47099D EQ PUSH2 0xD2 JUMPI JUMPDEST PUSH1 0x0 DUP1 REVERT JUMPDEST PUSH2 0x59 PUSH2 0xEE JUMP JUMPDEST PUSH1 0x40 MLOAD PUSH2 0x68 SWAP4 SWAP3 SWAP2 SWAP1 PUSH2 0x41C JUMP JUMPDEST PUSH1 0x40 MLOAD DUP1 SWAP2 SUB SWAP1 RETURN JUMPDEST PUSH2 0x8B PUSH1 0x4 DUP1 CALLDATASIZE SUB DUP2 ADD SWAP1 PUSH2 0x86 SWAP2 SWAP1 PUSH2 0x4B6 JUMP JUMPDEST PUSH2 0x118 JUMP JUMPDEST PUSH1 0x40 MLOAD PUSH2 0x98 SWAP2 SWAP1 PUSH2 0x4E3 JUMP JUMPDEST PUSH1 0x40 MLOAD DUP1 SWAP2 SUB SWAP1 RETURN JUMPDEST PUSH2 0xBB PUSH1 0x4 DUP1 CALLDATASIZE SUB DUP2 ADD SWAP1 PUSH2 0xB6 SWAP2 SWAP1 PUSH2 0x4B6 JUMP JUMPDEST PUSH2 0x163 JUMP JUMPDEST PUSH1 0x40 MLOAD PUSH2 0xC9 SWAP3 SWAP2 SWAP1 PUSH2 0x4FE JUMP JUMPDEST PUSH1 0x40 MLOAD DUP1 SWAP2 SUB SWAP1 RETURN JUMPDEST PUSH2 0xEC PUSH1 0x4 DUP1 CALLDATASIZE SUB DUP2 ADD SWAP1 PUSH2 0xE7 SWAP2 SWAP1 PUSH2 0x57F JUMP JUMPDEST PUSH2 0x194 JUMP JUMPDEST STOP JUMPDEST PUSH1 0x0 DUP1 PUSH1 0x0 PUSH1 0x1 DUP1 ADD SLOAD SWAP3 POP PUSH1 0x1 PUSH1 0x2 ADD SLOAD SWAP2 POP PUSH1 0x1 SWAP1 POP DUP2 DUP4 LT ISZERO PUSH2 0x113 JUMPI PUSH1 0x0 SWAP1 POP JUMPDEST SWAP1 SWAP2 SWAP3 JUMP JUMPDEST PUSH1 0x0 DUP1 PUSH1 0x0 DUP4 PUSH20 0xFFFFFFFFFFFFFFFFFFFFFFFFFFFFFFFFFFFFFFFF AND PUSH20 0xFFFFFFFFFFFFFFFFFFFFFFFFFFFFFFFFFFFFFFFF AND DUP2 MSTORE PUSH1 0x20 ADD SWAP1 DUP2 MSTORE PUSH1 0x20 ADD PUSH1 0x0 KECCAK256 PUSH1 0x1 ADD SLOAD SWAP1 POP SWAP2 SWAP1 POP JUMP JUMPDEST PUSH1 0x0 PUSH1 0x20 MSTORE DUP1 PUSH1 0x0 MSTORE PUSH1 0x40 PUSH1 0x0 KECCAK256 PUSH1 0x0 SWAP2 POP SWAP1 POP DUP1 PUSH1 0x0 ADD PUSH1 0x0 SWAP1 SLOAD SWAP1 PUSH2 0x100 EXP SWAP1 DIV PUSH1 0xFF AND SWAP1 DUP1 PUSH1 0x1 ADD SLOAD SWAP1 POP DUP3 JUMP JUMPDEST PUSH1 0x0 DUP1 DUP3 PUSH20 0xFFFFFFFFFFFFFFFFFFFFFFFFFFFFFFFFFFFFFFFF AND PUSH20 0xFFFFFFFFFFFFFFFFFFFFFFFFFFFFFFFFFFFFFFFF AND DUP2 MSTORE PUSH1 0x20 ADD SWAP1 DUP2 MSTORE PUSH1 0x20 ADD PUSH1 0x0 KECCAK256 PUSH1 0x0 ADD PUSH1 0x0 SWAP1 SLOAD SWAP1 PUSH2 0x100 EXP SWAP1 DIV PUSH1 0xFF AND PUSH2 0x26B JUMPI PUSH1 0x40 MLOAD DUP1 PUSH1 0x40 ADD PUSH1 0x40 MSTORE DUP1 PUSH1 0x1 ISZERO ISZERO DUP2 MSTORE PUSH1 0x20 ADD DUP4 DUP2 MSTORE POP PUSH1 0x0 DUP1 DUP4 PUSH20 0xFFFFFFFFFFFFFFFFFFFFFFFFFFFFFFFFFFFFFFFF AND PUSH20 0xFFFFFFFFFFFFFFFFFFFFFFFFFFFFFFFFFFFFFFFF AND DUP2 MSTORE PUSH1 0x20 ADD SWAP1 DUP2 MSTORE PUSH1 0x20 ADD PUSH1 0x0 KECCAK256 PUSH1 0x0 DUP3 ADD MLOAD DUP2 PUSH1 0x0 ADD PUSH1 0x0 PUSH2 0x100 EXP DUP2 SLOAD DUP2 PUSH1 0xFF MUL NOT AND SWAP1 DUP4 ISZERO ISZERO MUL OR SWAP1 SSTORE POP PUSH1 0x20 DUP3 ADD MLOAD DUP2 PUSH1 0x1 ADD SSTORE SWAP1 POP POP JUMPDEST PUSH1 0x0 DUP1 DUP3 PUSH20 0xFFFFFFFFFFFFFFFFFFFFFFFFFFFFFFFFFFFFFFFF AND PUSH20 0xFFFFFFFFFFFFFFFFFFFFFFFFFFFFFFFFFFFFFFFF AND DUP2 MSTORE PUSH1 0x20 ADD SWAP1 DUP2 MSTORE PUSH1 0x20 ADD PUSH1 0x0 KECCAK256 PUSH1 0x1 ADD SLOAD DUP5 GT ISZERO PUSH2 0x2EF JUMPI PUSH1 0x40 MLOAD PUSH32 0x8C379A000000000000000000000000000000000000000000000000000000000 DUP2 MSTORE PUSH1 0x4 ADD PUSH2 0x2E6 SWAP1 PUSH2 0x643 JUMP JUMPDEST PUSH1 0x40 MLOAD DUP1 SWAP2 SUB SWAP1 REVERT JUMPDEST DUP3 ISZERO PUSH2 0x36D JUMPI DUP4 PUSH1 0x1 DUP1 ADD PUSH1 0x0 DUP3 DUP3 SLOAD PUSH2 0x309 SWAP2 SWAP1 PUSH2 0x692 JUMP JUMPDEST SWAP3 POP POP DUP2 SWAP1 SSTORE POP DUP4 PUSH1 0x0 DUP1 DUP4 PUSH20 0xFFFFFFFFFFFFFFFFFFFFFFFFFFFFFFFFFFFFFFFF AND PUSH20 0xFFFFFFFFFFFFFFFFFFFFFFFFFFFFFFFFFFFFFFFF AND DUP2 MSTORE PUSH1 0x20 ADD SWAP1 DUP2 MSTORE PUSH1 0x20 ADD PUSH1 0x0 KECCAK256 PUSH1 0x1 ADD PUSH1 0x0 DUP3 DUP3 SLOAD PUSH2 0x361 SWAP2 SWAP1 PUSH2 0x6C6 JUMP JUMPDEST SWAP3 POP POP DUP2 SWAP1 SSTORE POP PUSH2 0x3E2 JUMP JUMPDEST DUP4 PUSH1 0x1 PUSH1 0x2 ADD PUSH1 0x0 DUP3 DUP3 SLOAD PUSH2 0x382 SWAP2 SWAP1 PUSH2 0x692 JUMP JUMPDEST SWAP3 POP POP DUP2 SWAP1 SSTORE POP DUP4 PUSH1 0x0 DUP1 DUP4 PUSH20 0xFFFFFFFFFFFFFFFFFFFFFFFFFFFFFFFFFFFFFFFF AND PUSH20 0xFFFFFFFFFFFFFFFFFFFFFFFFFFFFFFFFFFFFFFFF AND DUP2 MSTORE PUSH1 0x20 ADD SWAP1 DUP2 MSTORE PUSH1 0x20 ADD PUSH1 0x0 KECCAK256 PUSH1 0x1 ADD PUSH1 0x0 DUP3 DUP3 SLOAD PUSH2 0x3DA SWAP2 SWAP1 PUSH2 0x6C6 JUMP JUMPDEST SWAP3 POP POP DUP2 SWAP1 SSTORE POP JUMPDEST POP POP POP POP JUMP JUMPDEST PUSH1 0x0 DUP2 SWAP1 POP SWAP2 SWAP1 POP JUMP JUMPDEST PUSH2 0x3FB DUP2 PUSH2 0x3E8 JUMP JUMPDEST DUP3 MSTORE POP POP JUMP JUMPDEST PUSH1 0x0 DUP2 ISZERO ISZERO SWAP1 POP SWAP2 SWAP1 POP JUMP JUMPDEST PUSH2 0x416 DUP2 PUSH2 0x401 JUMP JUMPDEST DUP3 MSTORE POP POP JUMP JUMPDEST PUSH1 0x0 PUSH1 0x60 DUP3 ADD SWAP1 POP PUSH2 0x431 PUSH1 0x0 DUP4 ADD DUP7 PUSH2 0x3F2 JUMP JUMPDEST PUSH2 0x43E PUSH1 0x20 DUP4 ADD DUP6 PUSH2 0x3F2 JUMP JUMPDEST PUSH2 0x44B PUSH1 0x40 DUP4 ADD DUP5 PUSH2 0x40D JUMP JUMPDEST SWAP5 SWAP4 POP POP POP POP JUMP JUMPDEST PUSH1 0x0 DUP1 REVERT JUMPDEST PUSH1 0x0 PUSH20 0xFFFFFFFFFFFFFFFFFFFFFFFFFFFFFFFFFFFFFFFF DUP3 AND SWAP1 POP SWAP2 SWAP1 POP JUMP JUMPDEST PUSH1 0x0 PUSH2 0x483 DUP3 PUSH2 0x458 JUMP JUMPDEST SWAP1 POP SWAP2 SWAP1 POP JUMP JUMPDEST PUSH2 0x493 DUP2 PUSH2 0x478 JUMP JUMPDEST DUP2 EQ PUSH2 0x49E JUMPI PUSH1 0x0 DUP1 REVERT JUMPDEST POP JUMP JUMPDEST PUSH1 0x0 DUP2 CALLDATALOAD SWAP1 POP PUSH2 0x4B0 DUP2 PUSH2 0x48A JUMP JUMPDEST SWAP3 SWAP2 POP POP JUMP JUMPDEST PUSH1 0x0 PUSH1 0x20 DUP3 DUP5 SUB SLT ISZERO PUSH2 0x4CC JUMPI PUSH2 0x4CB PUSH2 0x453 JUMP JUMPDEST JUMPDEST PUSH1 0x0 PUSH2 0x4DA DUP5 DUP3 DUP6 ADD PUSH2 0x4A1 JUMP JUMPDEST SWAP2 POP POP SWAP3 SWAP2 POP POP JUMP JUMPDEST PUSH1 0x0 PUSH1 0x20 DUP3 ADD SWAP1 POP PUSH2 0x4F8 PUSH1 0x0 DUP4 ADD DUP5 PUSH2 0x3F2 JUMP JUMPDEST SWAP3 SWAP2 POP POP JUMP JUMPDEST PUSH1 0x0 PUSH1 0x40 DUP3 ADD SWAP1 POP PUSH2 0x513 PUSH1 0x0 DUP4 ADD DUP6 PUSH2 0x40D JUMP JUMPDEST PUSH2 0x520 PUSH1 0x20 DUP4 ADD DUP5 PUSH2 0x3F2 JUMP JUMPDEST SWAP4 SWAP3 POP POP POP JUMP JUMPDEST PUSH2 0x530 DUP2 PUSH2 0x3E8 JUMP JUMPDEST DUP2 EQ PUSH2 0x53B JUMPI PUSH1 0x0 DUP1 REVERT JUMPDEST POP JUMP JUMPDEST PUSH1 0x0 DUP2 CALLDATALOAD SWAP1 POP PUSH2 0x54D DUP2 PUSH2 0x527 JUMP JUMPDEST SWAP3 SWAP2 POP POP JUMP JUMPDEST PUSH2 0x55C DUP2 PUSH2 0x401 JUMP JUMPDEST DUP2 EQ PUSH2 0x567 JUMPI PUSH1 0x0 DUP1 REVERT JUMPDEST POP JUMP JUMPDEST PUSH1 0x0 DUP2 CALLDATALOAD SWAP1 POP PUSH2 0x579 DUP2 PUSH2 0x553 JUMP JUMPDEST SWAP3 SWAP2 POP POP JUMP JUMPDEST PUSH1 0x0 DUP1 PUSH1 0x0 DUP1 PUSH1 0x80 DUP6 DUP8 SUB SLT ISZERO PUSH2 0x599 JUMPI PUSH2 0x598 PUSH2 0x453 JUMP JUMPDEST JUMPDEST PUSH1 0x0 PUSH2 0x5A7 DUP8 DUP3 DUP9 ADD PUSH2 0x53E JUMP JUMPDEST SWAP5 POP POP PUSH1 0x20 PUSH2 0x5B8 DUP8 DUP3 DUP9 ADD PUSH2 0x56A JUMP JUMPDEST SWAP4 POP POP PUSH1 0x40 PUSH2 0x5C9 DUP8 DUP3 DUP9 ADD PUSH2 0x53E JUMP JUMPDEST SWAP3 POP POP PUSH1 0x60 PUSH2 0x5DA DUP8 DUP3 DUP9 ADD PUSH2 0x4A1 JUMP JUMPDEST SWAP2 POP POP SWAP3 SWAP6 SWAP2 SWAP5 POP SWAP3 POP JUMP JUMPDEST PUSH1 0x0 DUP3 DUP3 MSTORE PUSH1 0x20 DUP3 ADD SWAP1 POP SWAP3 SWAP2 POP POP JUMP JUMPDEST PUSH32 0x596F757220746F6B656E206973206E6F7420656E6F7567680000000000000000 PUSH1 0x0 DUP3 ADD MSTORE POP JUMP JUMPDEST PUSH1 0x0 PUSH2 0x62D PUSH1 0x18 DUP4 PUSH2 0x5E6 JUMP JUMPDEST SWAP2 POP PUSH2 0x638 DUP3 PUSH2 0x5F7 JUMP JUMPDEST PUSH1 0x20 DUP3 ADD SWAP1 POP SWAP2 SWAP1 POP JUMP JUMPDEST PUSH1 0x0 PUSH1 0x20 DUP3 ADD SWAP1 POP DUP2 DUP2 SUB PUSH1 0x0 DUP4 ADD MSTORE PUSH2 0x65C DUP2 PUSH2 0x620 JUMP JUMPDEST SWAP1 POP SWAP2 SWAP1 POP JUMP JUMPDEST PUSH32 0x4E487B7100000000000000000000000000000000000000000000000000000000 PUSH1 0x0 MSTORE PUSH1 0x11 PUSH1 0x4 MSTORE PUSH1 0x24 PUSH1 0x0 REVERT JUMPDEST PUSH1 0x0 PUSH2 0x69D DUP3 PUSH2 0x3E8 JUMP JUMPDEST SWAP2 POP PUSH2 0x6A8 DUP4 PUSH2 0x3E8 JUMP JUMPDEST SWAP3 POP DUP3 DUP3 ADD SWAP1 POP DUP1 DUP3 GT ISZERO PUSH2 0x6C0 JUMPI PUSH2 0x6BF PUSH2 0x663 JUMP JUMPDEST JUMPDEST SWAP3 SWAP2 POP POP JUMP JUMPDEST PUSH1 0x0 PUSH2 0x6D1 DUP3 PUSH2 0x3E8 JUMP JUMPDEST SWAP2 POP PUSH2 0x6DC DUP4 PUSH2 0x3E8 JUMP JUMPDEST SWAP3 POP DUP3 DUP3 SUB SWAP1 POP DUP2 DUP2 GT ISZERO PUSH2 0x6F4 JUMPI PUSH2 0x6F3 PUSH2 0x663 JUMP JUMPDEST JUMPDEST SWAP3 SWAP2 POP POP JUMP INVALID LOG2 PUSH5 0x6970667358 0x22 SLT KECCAK256 JUMP 0xEF 0xDC SIGNEXTEND 0xA8 0xB5 0xEA CALLVALUE DUP12 PUSH30 0xC5B581D7982B65A65EDB85A170B9068ECF1DA64E9EF464736F6C63430008 SLT STOP CALLER "
				},
				"gasEstimates": {
					"creation": {
						"codeDepositCost": "368000",
						"executionCost": "34810",
						"totalCost": "402810"
					},
					"external": {
						"proposalResult()": "infinite",
						"restVoteWeight(address)": "2847",
						"vote(uint256,bool,uint256,address)": "infinite",
						"voters(address)": "5104"
					}
				},
				"methodIdentifiers": {
					"proposalResult()": "4433fe1c",
					"restVoteWeight(address)": "66dceec8",
					"vote(uint256,bool,uint256,address)": "eb47099d",
					"voters(address)": "a3ec138d"
				}
			},
			"storageLayout": {
				"storage": [
					{
						"astId": 18,
						"contract": "proposal.sol:proposalVote",
						"label": "voters",
						"offset": 0,
						"slot": "0",
						"type": "t_mapping(t_address,t_struct(Voter)13_storage)"
					},
					{
						"astId": 21,
						"contract": "proposal.sol:proposalVote",
						"label": "pro",
						"offset": 0,
						"slot": "1",
						"type": "t_struct(Voteprocess)8_storage"
					}
				],
				"types": {
					"t_address": {
						"encoding": "inplace",
						"label": "address",
						"numberOfBytes": "20"
					},
					"t_bool": {
						"encoding": "inplace",
						"label": "bool",
						"numberOfBytes": "1"
					},
					"t_mapping(t_address,t_struct(Voter)13_storage)": {
						"encoding": "mapping",
						"key": "t_address",
						"label": "mapping(address => struct proposalVote.Voter)",
						"numberOfBytes": "32",
						"value": "t_struct(Voter)13_storage"
					},
					"t_struct(Voteprocess)8_storage": {
						"encoding": "inplace",
						"label": "struct proposalVote.Voteprocess",
						"members": [
							{
								"astId": 3,
								"contract": "proposal.sol:proposalVote",
								"label": "finish",
								"offset": 0,
								"slot": "0",
								"type": "t_bool"
							},
							{
								"astId": 5,
								"contract": "proposal.sol:proposalVote",
								"label": "yesVotes",
								"offset": 0,
								"slot": "1",
								"type": "t_uint256"
							},
							{
								"astId": 7,
								"contract": "proposal.sol:proposalVote",
								"label": "noVotes",
								"offset": 0,
								"slot": "2",
								"type": "t_uint256"
							}
						],
						"numberOfBytes": "96"
					},
					"t_struct(Voter)13_storage": {
						"encoding": "inplace",
						"label": "struct proposalVote.Voter",
						"members": [
							{
								"astId": 10,
								"contract": "proposal.sol:proposalVote",
								"label": "exists",
								"offset": 0,
								"slot": "0",
								"type": "t_bool"
							},
							{
								"astId": 12,
								"contract": "proposal.sol:proposalVote",
								"label": "voteweight",
								"offset": 0,
								"slot": "1",
								"type": "t_uint256"
							}
						],
						"numberOfBytes": "64"
					},
					"t_uint256": {
						"encoding": "inplace",
						"label": "uint256",
						"numberOfBytes": "32"
					}
				}
			},
			"userdoc": {
				"kind": "user",
				"methods": {},
				"version": 1
			}
		}
	}
}